{
  "address": "0xD2317108232A5260b6CFD8318023f3Db9DE67B8f",
  "abi": [
    {
      "inputs": [],
      "stateMutability": "nonpayable",
      "type": "constructor"
    },
    {
      "inputs": [
        {
          "internalType": "string",
          "name": "reason",
          "type": "string"
        }
      ],
      "name": "NoLotteryOwner",
      "type": "error"
    },
    {
      "inputs": [
        {
          "internalType": "address",
          "name": "owner",
          "type": "address"
        }
      ],
      "name": "OwnableInvalidOwner",
      "type": "error"
    },
    {
      "inputs": [
        {
          "internalType": "address",
          "name": "account",
          "type": "address"
        }
      ],
      "name": "OwnableUnauthorizedAccount",
      "type": "error"
    },
    {
      "inputs": [
        {
          "internalType": "string",
          "name": "reason",
          "type": "string"
        }
      ],
      "name": "SimpleError",
      "type": "error"
    },
    {
      "anonymous": false,
      "inputs": [
        {
          "indexed": true,
          "internalType": "uint256",
          "name": "id",
          "type": "uint256"
        },
        {
          "indexed": true,
          "internalType": "address",
          "name": "owner",
          "type": "address"
        }
      ],
      "name": "LotteryCreated",
      "type": "event"
    },
    {
      "anonymous": false,
      "inputs": [
        {
          "indexed": true,
          "internalType": "uint256",
          "name": "id",
          "type": "uint256"
        },
        {
          "indexed": false,
          "internalType": "uint256",
          "name": "count",
          "type": "uint256"
        }
      ],
      "name": "LuckyNumbersImported",
      "type": "event"
    },
    {
      "anonymous": false,
      "inputs": [
        {
          "indexed": true,
          "internalType": "address",
          "name": "previousOwner",
          "type": "address"
        },
        {
          "indexed": true,
          "internalType": "address",
          "name": "newOwner",
          "type": "address"
        }
      ],
      "name": "OwnershipTransferred",
      "type": "event"
    },
    {
      "anonymous": false,
      "inputs": [
        {
          "indexed": true,
          "internalType": "uint256",
          "name": "id",
          "type": "uint256"
        },
        {
          "indexed": true,
          "internalType": "address",
          "name": "owner",
          "type": "address"
        }
      ],
      "name": "TicketBought",
      "type": "event"
    },
    {
      "inputs": [
        {
          "internalType": "uint256",
          "name": "lotteryId",
          "type": "uint256"
        },
        {
          "internalType": "uint256",
          "name": "luckyNumberIndex",
          "type": "uint256"
        }
      ],
      "name": "buyTicket",
      "outputs": [],
      "stateMutability": "payable",
      "type": "function"
    },
    {
      "inputs": [
        {
          "internalType": "string",
          "name": "title",
          "type": "string"
        },
        {
          "internalType": "string",
          "name": "description",
          "type": "string"
        },
        {
          "internalType": "string",
          "name": "imageURL",
          "type": "string"
        },
        {
          "internalType": "uint256",
          "name": "ticketPrice",
          "type": "uint256"
        },
        {
          "internalType": "uint256",
          "name": "servicePercent",
          "type": "uint256"
        },
        {
          "internalType": "uint256",
          "name": "expiresAt",
          "type": "uint256"
        }
      ],
      "name": "createLottery",
      "outputs": [],
      "stateMutability": "nonpayable",
      "type": "function"
    },
    {
      "inputs": [
        {
          "internalType": "uint256",
          "name": "lotteryId",
          "type": "uint256"
        },
        {
          "internalType": "uint256",
          "name": "numberOfWinners",
          "type": "uint256"
        }
      ],
      "name": "drawWinners",
      "outputs": [],
      "stateMutability": "nonpayable",
      "type": "function"
    },
    {
      "inputs": [],
      "name": "game",
      "outputs": [
        {
          "internalType": "contract ILotteryGame",
          "name": "",
          "type": "address"
        }
      ],
      "stateMutability": "view",
      "type": "function"
    },
    {
      "inputs": [
        {
          "internalType": "uint256",
          "name": "lotteryId",
          "type": "uint256"
        }
      ],
      "name": "getAvailableLuckyNumbers",
      "outputs": [
        {
          "internalType": "string[]",
          "name": "available",
          "type": "string[]"
        }
      ],
      "stateMutability": "view",
      "type": "function"
    },
    {
      "inputs": [],
      "name": "getBalance",
      "outputs": [
        {
          "internalType": "uint256",
          "name": "",
          "type": "uint256"
        }
      ],
      "stateMutability": "view",
      "type": "function"
    },
    {
      "inputs": [
        {
          "internalType": "uint256",
          "name": "lotteryId",
          "type": "uint256"
        }
      ],
      "name": "getJackpot",
      "outputs": [
        {
          "internalType": "uint256",
          "name": "",
          "type": "uint256"
        }
      ],
      "stateMutability": "view",
      "type": "function"
    },
    {
      "inputs": [],
      "name": "getLotteries",
      "outputs": [
        {
          "components": [
            {
              "internalType": "uint256",
              "name": "id",
              "type": "uint256"
            },
            {
              "internalType": "string",
              "name": "title",
              "type": "string"
            },
            {
              "internalType": "string",
              "name": "description",
              "type": "string"
            },
            {
              "internalType": "string",
              "name": "imageURL",
              "type": "string"
            },
            {
              "internalType": "uint256",
              "name": "ticketPrice",
              "type": "uint256"
            },
            {
              "internalType": "uint256",
              "name": "numOfParticipants",
              "type": "uint256"
            },
            {
              "internalType": "uint256",
              "name": "servicePercent",
              "type": "uint256"
            },
            {
              "internalType": "bool",
              "name": "drawn",
              "type": "bool"
            },
            {
              "internalType": "address",
              "name": "owner",
              "type": "address"
            },
            {
              "internalType": "uint256",
              "name": "createdAt",
              "type": "uint256"
            },
            {
              "internalType": "uint256",
              "name": "expiresAt",
              "type": "uint256"
            }
          ],
          "internalType": "struct ILotteryManager.LotteryStruct[]",
          "name": "_lotteries",
          "type": "tuple[]"
        }
      ],
      "stateMutability": "view",
      "type": "function"
    },
    {
      "inputs": [
        {
          "internalType": "uint256",
          "name": "lotteryId",
          "type": "uint256"
        }
      ],
      "name": "getLottery",
      "outputs": [
        {
          "components": [
            {
              "internalType": "uint256",
              "name": "id",
              "type": "uint256"
            },
            {
              "internalType": "string",
              "name": "title",
              "type": "string"
            },
            {
              "internalType": "string",
              "name": "description",
              "type": "string"
            },
            {
              "internalType": "string",
              "name": "imageURL",
              "type": "string"
            },
            {
              "internalType": "uint256",
              "name": "ticketPrice",
              "type": "uint256"
            },
            {
              "internalType": "uint256",
              "name": "numOfParticipants",
              "type": "uint256"
            },
            {
              "internalType": "uint256",
              "name": "servicePercent",
              "type": "uint256"
            },
            {
              "internalType": "bool",
              "name": "drawn",
              "type": "bool"
            },
            {
              "internalType": "address",
              "name": "owner",
              "type": "address"
            },
            {
              "internalType": "uint256",
              "name": "createdAt",
              "type": "uint256"
            },
            {
              "internalType": "uint256",
              "name": "expiresAt",
              "type": "uint256"
            }
          ],
          "internalType": "struct ILotteryManager.LotteryStruct",
          "name": "",
          "type": "tuple"
        }
      ],
      "stateMutability": "view",
      "type": "function"
    },
    {
      "inputs": [
        {
          "internalType": "uint256",
          "name": "lotteryId",
          "type": "uint256"
        }
      ],
      "name": "getLotteryParticipants",
      "outputs": [
        {
          "components": [
            {
              "internalType": "address",
              "name": "account",
              "type": "address"
            },
            {
              "internalType": "string",
              "name": "lotteryNumber",
              "type": "string"
            }
          ],
          "internalType": "struct ILotteryManager.ParticipationStruct[]",
          "name": "",
          "type": "tuple[]"
        }
      ],
      "stateMutability": "view",
      "type": "function"
    },
    {
      "inputs": [
        {
          "internalType": "uint256",
          "name": "lotteryId",
          "type": "uint256"
        }
      ],
      "name": "getLotteryParticipantsAddresses",
      "outputs": [
        {
          "internalType": "address[]",
          "name": "",
          "type": "address[]"
        }
      ],
      "stateMutability": "view",
      "type": "function"
    },
    {
      "inputs": [
        {
          "internalType": "uint256",
          "name": "lotteryId",
          "type": "uint256"
        }
      ],
      "name": "getLuckyNumbers",
      "outputs": [
        {
          "internalType": "string[]",
          "name": "luckyNumbers",
          "type": "string[]"
        }
      ],
      "stateMutability": "view",
      "type": "function"
    },
    {
      "inputs": [],
      "name": "getTotalLotteries",
      "outputs": [
        {
          "internalType": "uint256",
          "name": "",
          "type": "uint256"
        }
      ],
      "stateMutability": "view",
      "type": "function"
    },
    {
      "inputs": [
        {
          "internalType": "uint256",
          "name": "lotteryId",
          "type": "uint256"
        },
        {
          "internalType": "string[]",
          "name": "luckyNumbers",
          "type": "string[]"
        }
      ],
      "name": "importLuckyNumbers",
      "outputs": [],
      "stateMutability": "nonpayable",
      "type": "function"
    },
    {
      "inputs": [],
      "name": "owner",
      "outputs": [
        {
          "internalType": "address",
          "name": "",
          "type": "address"
        }
      ],
      "stateMutability": "view",
      "type": "function"
    },
    {
      "inputs": [],
      "name": "platformBalance",
      "outputs": [
        {
          "internalType": "uint256",
          "name": "",
          "type": "uint256"
        }
      ],
      "stateMutability": "view",
      "type": "function"
    },
    {
      "inputs": [],
      "name": "renounceOwnership",
      "outputs": [],
      "stateMutability": "nonpayable",
      "type": "function"
    },
    {
      "inputs": [
        {
          "internalType": "address",
          "name": "_game",
          "type": "address"
        }
      ],
      "name": "setGame",
      "outputs": [],
      "stateMutability": "nonpayable",
      "type": "function"
    },
    {
      "inputs": [
        {
          "internalType": "address",
          "name": "newOwner",
          "type": "address"
        }
      ],
      "name": "transferOwnership",
      "outputs": [],
      "stateMutability": "nonpayable",
      "type": "function"
    }
  ],
  "transactionHash": "0x8d3e656beec25b3153d935e7d740f7dd3e2ba6982d98506d701940555a289b98",
  "args": [],
  "numDeployments": 5,
  "solcInputHash": "65f0735cc9fb3cba5463af3fccea40a1",
  "bytecode": "0x608060405234801561001057600080fd5b50338061003757604051631e4fbdf760e01b81526000600482015260240160405180910390fd5b61004081610046565b50610096565b600080546001600160a01b038381166001600160a01b0319831681178455604051919092169283917f8be0079c531659141344cd1fd0a4f28419497f9722a3daafe3b4186f6b6457e09190a35050565b6120f4806100a56000396000f3fe6080604052600436106101145760003560e01c8063715018a6116100a0578063ad19c83911610064578063ad19c83914610301578063bcc82ec414610321578063c3fe3e2814610343578063db0cdf1814610363578063f2fde38b1461037857600080fd5b8063715018a61461024d578063819912a2146102625780638da5cb5b1461028257806392e845f6146102b4578063a69f269c146102e157600080fd5b80634ce4f927116100e75780634ce4f9271461019d57806362074fbf146101bd57806362a5dbbc146101dd578063643010b3146101f357806368fb2eba1461022057600080fd5b806312065fe014610119578063298ec2081461013b57806335ea2063146101505780634870eb6914610170575b600080fd5b34801561012557600080fd5b50475b6040519081526020015b60405180910390f35b61014e6101493660046119e3565b610398565b005b34801561015c57600080fd5b5061014e61016b366004611abc565b610683565b34801561017c57600080fd5b5061019061018b366004611b8b565b6108c0565b6040516101329190611ba4565b3480156101a957600080fd5b506101286101b8366004611b8b565b6109b0565b3480156101c957600080fd5b5061014e6101d83660046119e3565b6109db565b3480156101e957600080fd5b5061012860035481565b3480156101ff57600080fd5b5061021361020e366004611b8b565b610c31565b6040516101329190611c37565b34801561022c57600080fd5b5061024061023b366004611b8b565b610e17565b6040516101329190611c99565b34801561025957600080fd5b5061014e610fb3565b34801561026e57600080fd5b5061014e61027d366004611d16565b610fc7565b34801561028e57600080fd5b506000546001600160a01b03165b6040516001600160a01b039091168152602001610132565b3480156102c057600080fd5b506102d46102cf366004611b8b565b610ff1565b6040516101329190611dfa565b3480156102ed57600080fd5b506102136102fc366004611b8b565b611234565b34801561030d57600080fd5b5061014e61031c366004611e0d565b61139b565b34801561032d57600080fd5b506103366115f2565b6040516101329190611eb1565b34801561034f57600080fd5b5060015461029c906001600160a01b031681565b34801561036f57600080fd5b50600254610128565b34801561038457600080fd5b5061014e610393366004611d16565b6118c3565b6000828152600460208190526040909120908101543410156103f557604051631f200c7360e31b815260206004820152601060248201526f092dce6eaccccd2c6d2cadce8408aa8960831b60448201526064015b60405180910390fd5b806009015442111561044a57604051631f200c7360e31b815260206004820152601b60248201527f43616e6e6f7420627579205469636b65747320616e796d6f72652e000000000060448201526064016103ec565b600781015460ff161561049957604051631f200c7360e31b81526020600482015260166024820152754c6f747465727920616c726561647920647261776e2160501b60448201526064016103ec565b60008381526006602052604081208054849081106104b9576104b9611f06565b60009182526020909120600290910201600181015490915060ff161561051957604051631f200c7360e31b81526020600482015260146024820152734e756d62657220616c726561647920757365642160601b60448201526064016103ec565b600560008581526020019081526020016000206040518060400160405280336001600160a01b0316815260200183600001805461055590611f1c565b80601f016020809104026020016040519081016040528092919081815260200182805461058190611f1c565b80156105ce5780601f106105a3576101008083540402835291602001916105ce565b820191906000526020600020905b8154815290600101906020018083116105b157829003601f168201915b5050509190925250508154600180820184556000938452602093849020835160029093020180546001600160a01b0319166001600160a01b039093169290921782559282015191929091908201906106269082611f9f565b50505060058201805490600061063b83612075565b90915550506001818101805460ff19169091179055604051339085907f6606e4c8a88792ed4fd5159f9be235ca78e87fc1cbdc6158ea92d3ed3be9bf7290600090a350505050565b600082815260046020526040902060070154829061010090046001600160a01b031633146106ee576040516305eb3a9760e31b81526020600482015260176024820152764f6e6c792063616c6c61626c65206279206f776e65722160481b60448201526064016103ec565b6000838152600660205260409020541561073e57604051631f200c7360e31b815260206004820152601060248201526f105b1c9958591e481a5b5c1bdc9d195960821b60448201526064016103ec565b6000838152600460205260409020600501541561079e57604051631f200c7360e31b815260206004820152601b60248201527f5061727469636970616e747320616c7265616479206a6f696e6564000000000060448201526064016103ec565b81516000036107dd57604051631f200c7360e31b815260206004820152600a602482015269115b5c1d1e481b1a5cdd60b21b60448201526064016103ec565b60005b825181101561087f5760066000858152602001908152602001600020604051806040016040528085848151811061081957610819611f06565b602090810291909101810151825260009181018290528354600181018555938252902081519192600202019081906108519082611f9f565b50602091909101516001909101805460ff19169115159190911790558061087781612075565b9150506107e0565b50827fb22ffe18b1f94c49627736e7789522d5019e87ba72db94008f048f8019b93be383516040516108b391815260200190565b60405180910390a2505050565b6000818152600560205260408120546060919067ffffffffffffffff8111156108eb576108eb611a05565b604051908082528060200260200182016040528015610914578160200160208202803683370190505b50905060005b6000848152600560205260409020548110156109a957600084815260056020526040902080548290811061095057610950611f06565b600091825260209091206002909102015482516001600160a01b039091169083908390811061098157610981611f06565b6001600160a01b03909216602092830291909101909101526109a281612075565b905061091a565b5092915050565b6000818152600460208190526040822060058101549181015490916109d49161208e565b9392505050565b600082815260046020526040902060070154829061010090046001600160a01b03163314610a46576040516305eb3a9760e31b81526020600482015260176024820152764f6e6c792063616c6c61626c65206279206f776e65722160481b60448201526064016103ec565b6000838152600460205260409020600781015460ff1615610aa257604051631f200c7360e31b81526020600482015260156024820152742637ba3a32b93c9030b63932b0b23c90323930bbb760591b60448201526064016103ec565b8060090154421015610af757604051631f200c7360e31b815260206004820152601760248201527f4c6f7474657279206e6f7420657870697265642079657400000000000000000060448201526064016103ec565b6001831015610b4957604051631f200c7360e31b815260206004820152601d60248201527f4d7573742068617665206174206c65617374206f6e652077696e6e657200000060448201526064016103ec565b8060050154831180610b5b5750603283115b15610b9c57604051631f200c7360e31b815260206004820152601060248201526f546f6f206d616e792077696e6e65727360801b60448201526064016103ec565b600081600501548260040154610bb2919061208e565b60078301805460ff19166001908117909155546040516362074fbf60e01b815260048101889052602481018790529192506001600160a01b0316906362074fbf9083906044016000604051808303818588803b158015610c1157600080fd5b505af1158015610c25573d6000803e3d6000fd5b50505050505050505050565b6000818152600660205260408120606091805b8254811015610c9a57828181548110610c5f57610c5f611f06565b600091825260209091206001600290920201015460ff16610c885781610c8481612075565b9250505b80610c9281612075565b915050610c44565b508067ffffffffffffffff811115610cb457610cb4611a05565b604051908082528060200260200182016040528015610ce757816020015b6060815260200190600190039081610cd25790505b5092506000805b8354811015610e0e57838181548110610d0957610d09611f06565b600091825260209091206001600290920201015460ff16610dfc57838181548110610d3657610d36611f06565b90600052602060002090600202016000018054610d5290611f1c565b80601f0160208091040260200160405190810160405280929190818152602001828054610d7e90611f1c565b8015610dcb5780601f10610da057610100808354040283529160200191610dcb565b820191906000526020600020905b815481529060010190602001808311610dae57829003601f168201915b5050505050858381518110610de257610de2611f06565b60200260200101819052508180610df890612075565b9250505b80610e0681612075565b915050610cee565b50505050919050565b6000818152600560205260408120546060919067ffffffffffffffff811115610e4257610e42611a05565b604051908082528060200260200182016040528015610e8857816020015b604080518082019091526000815260606020820152815260200190600190039081610e605790505b50905060005b6000848152600560205260409020548110156109a9576000848152600560205260409020805482908110610ec457610ec4611f06565b60009182526020918290206040805180820190915260029092020180546001600160a01b031682526001810180549293919291840191610f0390611f1c565b80601f0160208091040260200160405190810160405280929190818152602001828054610f2f90611f1c565b8015610f7c5780601f10610f5157610100808354040283529160200191610f7c565b820191906000526020600020905b815481529060010190602001808311610f5f57829003601f168201915b505050505081525050828281518110610f9757610f97611f06565b602002602001018190525080610fac90612075565b9050610e8e565b610fbb611901565b610fc5600061192e565b565b610fcf611901565b600180546001600160a01b0319166001600160a01b0392909216919091179055565b610ff961197e565b60046000838152602001908152602001600020604051806101600160405290816000820154815260200160018201805461103290611f1c565b80601f016020809104026020016040519081016040528092919081815260200182805461105e90611f1c565b80156110ab5780601f10611080576101008083540402835291602001916110ab565b820191906000526020600020905b81548152906001019060200180831161108e57829003601f168201915b505050505081526020016002820180546110c490611f1c565b80601f01602080910402602001604051908101604052809291908181526020018280546110f090611f1c565b801561113d5780601f106111125761010080835404028352916020019161113d565b820191906000526020600020905b81548152906001019060200180831161112057829003601f168201915b5050505050815260200160038201805461115690611f1c565b80601f016020809104026020016040519081016040528092919081815260200182805461118290611f1c565b80156111cf5780601f106111a4576101008083540402835291602001916111cf565b820191906000526020600020905b8154815290600101906020018083116111b257829003601f168201915b5050509183525050600482015460208201526005820154604082015260068201546060820152600782015460ff81161515608083015261010090046001600160a01b031660a0820152600882015460c082015260099091015460e09091015292915050565b60008181526006602052604090205460609067ffffffffffffffff81111561125e5761125e611a05565b60405190808252806020026020018201604052801561129157816020015b606081526020019060019003908161127c5790505b50905060005b6000838152600660205260409020548110156113955760008381526006602052604090208054829081106112cd576112cd611f06565b906000526020600020906002020160000180546112e990611f1c565b80601f016020809104026020016040519081016040528092919081815260200182805461131590611f1c565b80156113625780601f1061133757610100808354040283529160200191611362565b820191906000526020600020905b81548152906001019060200180831161134557829003601f168201915b505050505082828151811061137957611379611f06565b60200260200101819052508061138e90612075565b9050611297565b50919050565b85516000036113e557604051631f200c7360e31b81526020600482015260156024820152745469746c652063616e6e6f7420626520656d70747960581b60448201526064016103ec565b8260000361143657604051631f200c7360e31b815260206004820152601d60248201527f5469636b6574205072697a65206d75737420626520706f73697469766500000060448201526064016103ec565b42811161148657604051631f200c7360e31b815260206004820152601c60248201527f45787069726174696f6e206d75737420626520696e206675747572650000000060448201526064016103ec565b6002805490600190600061149a83856120ab565b9091555050604080516101608101825282815260208082018a81528284018a90526060830189905260808301889052600060a0840181905260c0840188905260e0840181905233610100850152426101208501526101408401879052858152600490925292902081518155915190918291600182019061151a9082611f9f565b506040820151600282019061152f9082611f9f565b50606082015160038201906115449082611f9f565b506080820151600482015560a0820151600582015560c0820151600682015560e0820151600782018054610100808601516001600160a01b031602610100600160a81b0319931515939093166001600160a81b031990911617919091179055610120820151600882015561014090910151600990910155604051339083907f73ac9939c0fae9d35f1ff5450b52cb43bf0601ae6cc29f9d7eb5967b91e7505990600090a35050505050505050565b606060025467ffffffffffffffff81111561160f5761160f611a05565b60405190808252806020026020018201604052801561164857816020015b61163561197e565b81526020019060019003908161162d5790505b50905060005b6002548110156118bf5760046000828152602001908152602001600020604051806101600160405290816000820154815260200160018201805461169190611f1c565b80601f01602080910402602001604051908101604052809291908181526020018280546116bd90611f1c565b801561170a5780601f106116df5761010080835404028352916020019161170a565b820191906000526020600020905b8154815290600101906020018083116116ed57829003601f168201915b5050505050815260200160028201805461172390611f1c565b80601f016020809104026020016040519081016040528092919081815260200182805461174f90611f1c565b801561179c5780601f106117715761010080835404028352916020019161179c565b820191906000526020600020905b81548152906001019060200180831161177f57829003601f168201915b505050505081526020016003820180546117b590611f1c565b80601f01602080910402602001604051908101604052809291908181526020018280546117e190611f1c565b801561182e5780601f106118035761010080835404028352916020019161182e565b820191906000526020600020905b81548152906001019060200180831161181157829003601f168201915b5050509183525050600482015460208201526005820154604082015260068201546060820152600782015460ff81161515608083015261010090046001600160a01b031660a0820152600882015460c082015260099091015460e09091015282518390839081106118a1576118a1611f06565b602002602001018190525080806118b790612075565b91505061164e565b5090565b6118cb611901565b6001600160a01b0381166118f557604051631e4fbdf760e01b8152600060048201526024016103ec565b6118fe8161192e565b50565b6000546001600160a01b03163314610fc55760405163118cdaa760e01b81523360048201526024016103ec565b600080546001600160a01b038381166001600160a01b0319831681178455604051919092169283917f8be0079c531659141344cd1fd0a4f28419497f9722a3daafe3b4186f6b6457e09190a35050565b6040518061016001604052806000815260200160608152602001606081526020016060815260200160008152602001600081526020016000815260200160001515815260200160006001600160a01b0316815260200160008152602001600081525090565b600080604083850312156119f657600080fd5b50508035926020909101359150565b634e487b7160e01b600052604160045260246000fd5b604051601f8201601f1916810167ffffffffffffffff81118282101715611a4457611a44611a05565b604052919050565b600082601f830112611a5d57600080fd5b813567ffffffffffffffff811115611a7757611a77611a05565b611a8a601f8201601f1916602001611a1b565b818152846020838601011115611a9f57600080fd5b816020850160208301376000918101602001919091529392505050565b60008060408385031215611acf57600080fd5b8235915060208084013567ffffffffffffffff80821115611aef57600080fd5b818601915086601f830112611b0357600080fd5b813581811115611b1557611b15611a05565b8060051b611b24858201611a1b565b918252838101850191858101908a841115611b3e57600080fd5b86860192505b83831015611b7a57823585811115611b5c5760008081fd5b611b6a8c89838a0101611a4c565b8352509186019190860190611b44565b809750505050505050509250929050565b600060208284031215611b9d57600080fd5b5035919050565b6020808252825182820181905260009190848201906040850190845b81811015611be55783516001600160a01b031683529284019291840191600101611bc0565b50909695505050505050565b6000815180845260005b81811015611c1757602081850181015186830182015201611bfb565b506000602082860101526020601f19601f83011685010191505092915050565b6000602080830181845280855180835260408601915060408160051b870101925083870160005b82811015611c8c57603f19888603018452611c7a858351611bf1565b94509285019290850190600101611c5e565b5092979650505050505050565b60006020808301818452808551808352604092508286019150828160051b87010184880160005b83811015611d0857888303603f19018552815180516001600160a01b03168452870151878401879052611cf587850182611bf1565b9588019593505090860190600101611cc0565b509098975050505050505050565b600060208284031215611d2857600080fd5b81356001600160a01b03811681146109d457600080fd5b6000610160825184526020830151816020860152611d5f82860182611bf1565b91505060408301518482036040860152611d798282611bf1565b91505060608301518482036060860152611d938282611bf1565b9150506080830151608085015260a083015160a085015260c083015160c085015260e0830151611dc760e086018215159052565b50610100838101516001600160a01b03169085015261012080840151908501526101409283015192909301919091525090565b6020815260006109d46020830184611d3f565b60008060008060008060c08789031215611e2657600080fd5b863567ffffffffffffffff80821115611e3e57600080fd5b611e4a8a838b01611a4c565b97506020890135915080821115611e6057600080fd5b611e6c8a838b01611a4c565b96506040890135915080821115611e8257600080fd5b50611e8f89828a01611a4c565b945050606087013592506080870135915060a087013590509295509295509295565b6000602080830181845280855180835260408601915060408160051b870101925083870160005b82811015611c8c57603f19888603018452611ef4858351611d3f565b94509285019290850190600101611ed8565b634e487b7160e01b600052603260045260246000fd5b600181811c90821680611f3057607f821691505b60208210810361139557634e487b7160e01b600052602260045260246000fd5b601f821115611f9a57600081815260208120601f850160051c81016020861015611f775750805b601f850160051c820191505b81811015611f9657828155600101611f83565b5050505b505050565b815167ffffffffffffffff811115611fb957611fb9611a05565b611fcd81611fc78454611f1c565b84611f50565b602080601f8311600181146120025760008415611fea5750858301515b600019600386901b1c1916600185901b178555611f96565b600085815260208120601f198616915b8281101561203157888601518255948401946001909101908401612012565b508582101561204f5787850151600019600388901b60f8161c191681555b5050505050600190811b01905550565b634e487b7160e01b600052601160045260246000fd5b6000600182016120875761208761205f565b5060010190565b80820281158282048414176120a5576120a561205f565b92915050565b808201808211156120a5576120a561205f56fea26469706673582212204c7061c041b1665b61642c06a0b10fc31955eb3778485d735f3780306d4994fd64736f6c63430008140033",
  "devdoc": {
    "errors": {
      "OwnableInvalidOwner(address)": [
        {
          "details": "The owner is not a valid owner account. (eg. `address(0)`)"
        }
      ],
      "OwnableUnauthorizedAccount(address)": [
        {
          "details": "The caller account is not authorized to perform an operation."
        }
      ]
    },
    "kind": "dev",
    "methods": {
      "owner()": {
        "details": "Returns the address of the current owner."
      },
      "renounceOwnership()": {
        "details": "Leaves the contract without owner. It will not be possible to call `onlyOwner` functions. Can only be called by the current owner. NOTE: Renouncing ownership will leave the contract without an owner, thereby disabling any functionality that is only available to the owner."
      },
      "transferOwnership(address)": {
        "details": "Transfers ownership of the contract to a new account (`newOwner`). Can only be called by the current owner."
      }
    },
    "version": 1
  },
  "userdoc": {
    "kind": "user",
    "methods": {},
    "version": 1
  },
  "storageLayout": {
    "storage": [
      {
        "astId": 8,
        "contract": "contracts/LotteryManager.sol:LotteryManager",
        "label": "_owner",
        "offset": 0,
        "slot": "0",
        "type": "t_address"
      },
      {
        "astId": 204,
        "contract": "contracts/LotteryManager.sol:LotteryManager",
        "label": "game",
        "offset": 0,
        "slot": "1",
        "type": "t_contract(ILotteryGame)974"
      },
      {
        "astId": 206,
        "contract": "contracts/LotteryManager.sol:LotteryManager",
        "label": "_totalLotteries",
        "offset": 0,
        "slot": "2",
        "type": "t_uint256"
      },
      {
        "astId": 211,
        "contract": "contracts/LotteryManager.sol:LotteryManager",
        "label": "platformBalance",
        "offset": 0,
        "slot": "3",
        "type": "t_uint256"
      },
      {
        "astId": 216,
        "contract": "contracts/LotteryManager.sol:LotteryManager",
        "label": "lotteries",
        "offset": 0,
        "slot": "4",
        "type": "t_mapping(t_uint256,t_struct(LotteryStruct)999_storage)"
      },
      {
        "astId": 222,
        "contract": "contracts/LotteryManager.sol:LotteryManager",
        "label": "lotteryParticipants",
        "offset": 0,
        "slot": "5",
        "type": "t_mapping(t_uint256,t_array(t_struct(ParticipationStruct)1004_storage)dyn_storage)"
      },
      {
        "astId": 228,
        "contract": "contracts/LotteryManager.sol:LotteryManager",
        "label": "lotteryLuckyNumbers",
        "offset": 0,
        "slot": "6",
        "type": "t_mapping(t_uint256,t_array(t_struct(LuckyNumber)1009_storage)dyn_storage)"
      }
    ],
    "types": {
      "t_address": {
        "encoding": "inplace",
        "label": "address",
        "numberOfBytes": "20"
      },
      "t_array(t_struct(LuckyNumber)1009_storage)dyn_storage": {
        "base": "t_struct(LuckyNumber)1009_storage",
        "encoding": "dynamic_array",
        "label": "struct ILotteryManager.LuckyNumber[]",
        "numberOfBytes": "32"
      },
      "t_array(t_struct(ParticipationStruct)1004_storage)dyn_storage": {
        "base": "t_struct(ParticipationStruct)1004_storage",
        "encoding": "dynamic_array",
        "label": "struct ILotteryManager.ParticipationStruct[]",
        "numberOfBytes": "32"
      },
      "t_bool": {
        "encoding": "inplace",
        "label": "bool",
        "numberOfBytes": "1"
      },
      "t_contract(ILotteryGame)974": {
        "encoding": "inplace",
        "label": "contract ILotteryGame",
        "numberOfBytes": "20"
      },
      "t_mapping(t_uint256,t_array(t_struct(LuckyNumber)1009_storage)dyn_storage)": {
        "encoding": "mapping",
        "key": "t_uint256",
        "label": "mapping(uint256 => struct ILotteryManager.LuckyNumber[])",
        "numberOfBytes": "32",
        "value": "t_array(t_struct(LuckyNumber)1009_storage)dyn_storage"
      },
      "t_mapping(t_uint256,t_array(t_struct(ParticipationStruct)1004_storage)dyn_storage)": {
        "encoding": "mapping",
        "key": "t_uint256",
        "label": "mapping(uint256 => struct ILotteryManager.ParticipationStruct[])",
        "numberOfBytes": "32",
        "value": "t_array(t_struct(ParticipationStruct)1004_storage)dyn_storage"
      },
      "t_mapping(t_uint256,t_struct(LotteryStruct)999_storage)": {
        "encoding": "mapping",
        "key": "t_uint256",
        "label": "mapping(uint256 => struct ILotteryManager.LotteryStruct)",
        "numberOfBytes": "32",
        "value": "t_struct(LotteryStruct)999_storage"
      },
      "t_string_storage": {
        "encoding": "bytes",
        "label": "string",
        "numberOfBytes": "32"
      },
      "t_struct(LotteryStruct)999_storage": {
        "encoding": "inplace",
        "label": "struct ILotteryManager.LotteryStruct",
        "members": [
          {
            "astId": 978,
            "contract": "contracts/LotteryManager.sol:LotteryManager",
            "label": "id",
            "offset": 0,
            "slot": "0",
            "type": "t_uint256"
          },
          {
            "astId": 980,
            "contract": "contracts/LotteryManager.sol:LotteryManager",
            "label": "title",
            "offset": 0,
            "slot": "1",
            "type": "t_string_storage"
          },
          {
            "astId": 982,
            "contract": "contracts/LotteryManager.sol:LotteryManager",
            "label": "description",
            "offset": 0,
            "slot": "2",
            "type": "t_string_storage"
          },
          {
            "astId": 984,
            "contract": "contracts/LotteryManager.sol:LotteryManager",
            "label": "imageURL",
            "offset": 0,
            "slot": "3",
            "type": "t_string_storage"
          },
          {
            "astId": 986,
            "contract": "contracts/LotteryManager.sol:LotteryManager",
            "label": "ticketPrice",
            "offset": 0,
            "slot": "4",
            "type": "t_uint256"
          },
          {
            "astId": 988,
            "contract": "contracts/LotteryManager.sol:LotteryManager",
            "label": "numOfParticipants",
            "offset": 0,
            "slot": "5",
            "type": "t_uint256"
          },
          {
            "astId": 990,
            "contract": "contracts/LotteryManager.sol:LotteryManager",
            "label": "servicePercent",
            "offset": 0,
            "slot": "6",
            "type": "t_uint256"
          },
          {
            "astId": 992,
            "contract": "contracts/LotteryManager.sol:LotteryManager",
            "label": "drawn",
            "offset": 0,
            "slot": "7",
            "type": "t_bool"
          },
          {
            "astId": 994,
            "contract": "contracts/LotteryManager.sol:LotteryManager",
            "label": "owner",
            "offset": 1,
            "slot": "7",
            "type": "t_address"
          },
          {
            "astId": 996,
            "contract": "contracts/LotteryManager.sol:LotteryManager",
            "label": "createdAt",
            "offset": 0,
            "slot": "8",
            "type": "t_uint256"
          },
          {
            "astId": 998,
            "contract": "contracts/LotteryManager.sol:LotteryManager",
            "label": "expiresAt",
            "offset": 0,
            "slot": "9",
            "type": "t_uint256"
          }
        ],
        "numberOfBytes": "320"
      },
      "t_struct(LuckyNumber)1009_storage": {
        "encoding": "inplace",
        "label": "struct ILotteryManager.LuckyNumber",
        "members": [
          {
            "astId": 1006,
            "contract": "contracts/LotteryManager.sol:LotteryManager",
            "label": "number",
            "offset": 0,
            "slot": "0",
            "type": "t_string_storage"
          },
          {
            "astId": 1008,
            "contract": "contracts/LotteryManager.sol:LotteryManager",
            "label": "isUsed",
            "offset": 0,
            "slot": "1",
            "type": "t_bool"
          }
        ],
        "numberOfBytes": "64"
      },
      "t_struct(ParticipationStruct)1004_storage": {
        "encoding": "inplace",
        "label": "struct ILotteryManager.ParticipationStruct",
        "members": [
          {
            "astId": 1001,
            "contract": "contracts/LotteryManager.sol:LotteryManager",
            "label": "account",
            "offset": 0,
            "slot": "0",
            "type": "t_address"
          },
          {
            "astId": 1003,
            "contract": "contracts/LotteryManager.sol:LotteryManager",
            "label": "lotteryNumber",
            "offset": 0,
            "slot": "1",
            "type": "t_string_storage"
          }
        ],
        "numberOfBytes": "64"
      },
      "t_uint256": {
        "encoding": "inplace",
        "label": "uint256",
        "numberOfBytes": "32"
      }
    }
  }
}