{
  "address": "0xc150dA017A54E6Aa322F85B5968C65e7664eB2c7",
  "abi": [
    {
      "inputs": [
        {
          "internalType": "address",
          "name": "vrfCoordinator",
          "type": "address"
        },
        {
          "internalType": "bytes32",
          "name": "_keyHash",
          "type": "bytes32"
        },
        {
          "internalType": "uint256",
          "name": "subscriptionId",
          "type": "uint256"
        },
        {
          "internalType": "address",
          "name": "managerAddress",
          "type": "address"
        }
      ],
      "stateMutability": "nonpayable",
      "type": "constructor"
    },
    {
      "inputs": [],
      "name": "NoFunds",
      "type": "error"
    },
    {
      "inputs": [
        {
          "internalType": "address",
          "name": "have",
          "type": "address"
        },
        {
          "internalType": "address",
          "name": "want",
          "type": "address"
        }
      ],
      "name": "OnlyCoordinatorCanFulfill",
      "type": "error"
    },
    {
      "inputs": [
        {
          "internalType": "string",
          "name": "reason",
          "type": "string"
        }
      ],
      "name": "OnlyManager",
      "type": "error"
    },
    {
      "inputs": [
        {
          "internalType": "address",
          "name": "owner",
          "type": "address"
        }
      ],
      "name": "OwnableInvalidOwner",
      "type": "error"
    },
    {
      "inputs": [
        {
          "internalType": "address",
          "name": "account",
          "type": "address"
        }
      ],
      "name": "OwnableUnauthorizedAccount",
      "type": "error"
    },
    {
      "inputs": [],
      "name": "ReentrancyGuardReentrantCall",
      "type": "error"
    },
    {
      "anonymous": false,
      "inputs": [
        {
          "indexed": true,
          "internalType": "address",
          "name": "to",
          "type": "address"
        },
        {
          "indexed": false,
          "internalType": "uint256",
          "name": "amount",
          "type": "uint256"
        }
      ],
      "name": "Deposit",
      "type": "event"
    },
    {
      "anonymous": false,
      "inputs": [
        {
          "indexed": true,
          "internalType": "address",
          "name": "previousOwner",
          "type": "address"
        },
        {
          "indexed": true,
          "internalType": "address",
          "name": "newOwner",
          "type": "address"
        }
      ],
      "name": "OwnershipTransferred",
      "type": "event"
    },
    {
      "anonymous": false,
      "inputs": [
        {
          "indexed": true,
          "internalType": "uint256",
          "name": "lotteryId",
          "type": "uint256"
        },
        {
          "components": [
            {
              "internalType": "address",
              "name": "account",
              "type": "address"
            },
            {
              "internalType": "string",
              "name": "lotteryNumber",
              "type": "string"
            }
          ],
          "indexed": false,
          "internalType": "struct ILotteryManager.ParticipationStruct[]",
          "name": "winners",
          "type": "tuple[]"
        },
        {
          "indexed": false,
          "internalType": "uint256",
          "name": "prizePerWinner",
          "type": "uint256"
        },
        {
          "indexed": false,
          "internalType": "uint256",
          "name": "seed",
          "type": "uint256"
        }
      ],
      "name": "WinnersDrawn",
      "type": "event"
    },
    {
      "inputs": [
        {
          "internalType": "uint256",
          "name": "lotteryId",
          "type": "uint256"
        },
        {
          "internalType": "uint256",
          "name": "numberOfWinners",
          "type": "uint256"
        }
      ],
      "name": "drawWinners",
      "outputs": [],
      "stateMutability": "payable",
      "type": "function"
    },
    {
      "inputs": [
        {
          "internalType": "uint256",
          "name": "lotteryId",
          "type": "uint256"
        }
      ],
      "name": "getLotteryResults",
      "outputs": [
        {
          "components": [
            {
              "internalType": "bool",
              "name": "completed",
              "type": "bool"
            },
            {
              "internalType": "uint256",
              "name": "timestamp",
              "type": "uint256"
            },
            {
              "components": [
                {
                  "internalType": "address",
                  "name": "account",
                  "type": "address"
                },
                {
                  "internalType": "string",
                  "name": "lotteryNumber",
                  "type": "string"
                }
              ],
              "internalType": "struct ILotteryManager.ParticipationStruct[]",
              "name": "winners",
              "type": "tuple[]"
            },
            {
              "internalType": "uint256",
              "name": "prizePerWinner",
              "type": "uint256"
            },
            {
              "internalType": "uint256",
              "name": "seed",
              "type": "uint256"
            }
          ],
          "internalType": "struct LotteryGame.LotteryResult",
          "name": "",
          "type": "tuple"
        }
      ],
      "stateMutability": "view",
      "type": "function"
    },
    {
      "inputs": [
        {
          "internalType": "uint256",
          "name": "",
          "type": "uint256"
        }
      ],
      "name": "lotteryResults",
      "outputs": [
        {
          "internalType": "bool",
          "name": "completed",
          "type": "bool"
        },
        {
          "internalType": "uint256",
          "name": "timestamp",
          "type": "uint256"
        },
        {
          "internalType": "uint256",
          "name": "prizePerWinner",
          "type": "uint256"
        },
        {
          "internalType": "uint256",
          "name": "seed",
          "type": "uint256"
        }
      ],
      "stateMutability": "view",
      "type": "function"
    },
    {
      "inputs": [],
      "name": "manager",
      "outputs": [
        {
          "internalType": "contract ILotteryManager",
          "name": "",
          "type": "address"
        }
      ],
      "stateMutability": "view",
      "type": "function"
    },
    {
      "inputs": [],
      "name": "owner",
      "outputs": [
        {
          "internalType": "address",
          "name": "",
          "type": "address"
        }
      ],
      "stateMutability": "view",
      "type": "function"
    },
    {
      "inputs": [
        {
          "internalType": "address",
          "name": "",
          "type": "address"
        }
      ],
      "name": "pendingWithdrawals",
      "outputs": [
        {
          "internalType": "uint256",
          "name": "",
          "type": "uint256"
        }
      ],
      "stateMutability": "view",
      "type": "function"
    },
    {
      "inputs": [
        {
          "internalType": "uint256",
          "name": "requestId",
          "type": "uint256"
        },
        {
          "internalType": "uint256[]",
          "name": "randomWords",
          "type": "uint256[]"
        }
      ],
      "name": "rawFulfillRandomWords",
      "outputs": [],
      "stateMutability": "nonpayable",
      "type": "function"
    },
    {
      "inputs": [],
      "name": "renounceOwnership",
      "outputs": [],
      "stateMutability": "nonpayable",
      "type": "function"
    },
    {
      "inputs": [
        {
          "internalType": "uint256",
          "name": "",
          "type": "uint256"
        }
      ],
      "name": "requestIdToLotteryId",
      "outputs": [
        {
          "internalType": "uint256",
          "name": "",
          "type": "uint256"
        }
      ],
      "stateMutability": "view",
      "type": "function"
    },
    {
      "inputs": [
        {
          "internalType": "uint256",
          "name": "",
          "type": "uint256"
        }
      ],
      "name": "requestIdToLotteryPrizePool",
      "outputs": [
        {
          "internalType": "uint256",
          "name": "",
          "type": "uint256"
        }
      ],
      "stateMutability": "view",
      "type": "function"
    },
    {
      "inputs": [
        {
          "internalType": "uint256",
          "name": "",
          "type": "uint256"
        }
      ],
      "name": "requestIdToNumberOfWinners",
      "outputs": [
        {
          "internalType": "uint256",
          "name": "",
          "type": "uint256"
        }
      ],
      "stateMutability": "view",
      "type": "function"
    },
    {
      "inputs": [
        {
          "internalType": "address",
          "name": "newOwner",
          "type": "address"
        }
      ],
      "name": "transferOwnership",
      "outputs": [],
      "stateMutability": "nonpayable",
      "type": "function"
    },
    {
      "inputs": [],
      "name": "withdrawPayments",
      "outputs": [],
      "stateMutability": "nonpayable",
      "type": "function"
    },
    {
      "stateMutability": "payable",
      "type": "receive"
    }
  ],
  "transactionHash": "0xf546b266ac30c2eed61f17bfc1d2d01da221b46cf6f5ce09f54e30fe04aba2e1",
  "args": [
    "0x9ddfaca8183c41ad55329bdeed9f6a8d53168b1b",
    "0x787d74caea10b2b357790d5b5247c2f63d1d91572a9846f780606e4d953677ae",
    "76115054639814950319442636603512864149585032012272757582320587875679259115494",
    "0xD2317108232A5260b6CFD8318023f3Db9DE67B8f"
  ],
  "numDeployments": 5,
  "solcInputHash": "a242f985d1f9ba06c829fb697a9b0984",
  "bytecode": "0x610160604052620186a0610100526003610120526001610140523480156200002657600080fd5b506040516200198a3803806200198a83398101604081905262000049916200012c565b6001600160a01b03841660805233806200007d57604051631e4fbdf760e01b81526000600482015260240160405180910390fd5b6200008881620000bf565b50600180556001600160a01b0393841660a05260e09290925260c052600280546001600160a01b0319169190921617905562000177565b600080546001600160a01b038381166001600160a01b0319831681178455604051919092169283917f8be0079c531659141344cd1fd0a4f28419497f9722a3daafe3b4186f6b6457e09190a35050565b80516001600160a01b03811681146200012757600080fd5b919050565b600080600080608085870312156200014357600080fd5b6200014e856200010f565b935060208501519250604085015191506200016c606086016200010f565b905092959194509250565b60805160a05160c05160e0516101005161012051610140516117b1620001d9600039600061056f0152600061051b01526000610547015260006104c2015260006104f10152600061059901526000818161030e015261035001526117b16000f3fe6080604052600436106100c65760003560e01c8063662b89b01161007f578063916f04ff11610059578063916f04ff14610221578063b08b3a511461024e578063f2fde38b146102b6578063f3f43703146102d657600080fd5b8063662b89b0146101c1578063715018a6146101ee5780638da5cb5b1461020357600080fd5b80631fe543e3146100d2578063481c6a75146100f457806348ff6225146101315780635a79a3e31461016c5780636103d70b1461019957806362074fbf146101ae57600080fd5b366100cd57005b600080fd5b3480156100de57600080fd5b506100f26100ed366004610ff4565b610303565b005b34801561010057600080fd5b50600254610114906001600160a01b031681565b6040516001600160a01b0390911681526020015b60405180910390f35b34801561013d57600080fd5b5061015e61014c366004611096565b60046020526000908152604090205481565b604051908152602001610128565b34801561017857600080fd5b5061015e610187366004611096565b60056020526000908152604090205481565b3480156101a557600080fd5b506100f2610390565b6100f26101bc3660046110af565b61044e565b3480156101cd57600080fd5b506101e16101dc366004611096565b61063a565b60405161012891906110f5565b3480156101fa57600080fd5b506100f26107bb565b34801561020f57600080fd5b506000546001600160a01b0316610114565b34801561022d57600080fd5b5061015e61023c366004611096565b60036020526000908152604090205481565b34801561025a57600080fd5b50610294610269366004611096565b600760205260009081526040902080546001820154600383015460049093015460ff90921692909184565b6040805194151585526020850193909352918301526060820152608001610128565b3480156102c257600080fd5b506100f26102d13660046111d8565b6107cd565b3480156102e257600080fd5b5061015e6102f13660046111d8565b60066020526000908152604090205481565b336001600160a01b037f000000000000000000000000000000000000000000000000000000000000000016146103825760405163073e64fd60e21b81523360048201526001600160a01b037f00000000000000000000000000000000000000000000000000000000000000001660248201526044015b60405180910390fd5b61038c828261080b565b5050565b610398610c3b565b33600090815260066020526040812054908190036103c95760405163043f9e1160e41b815260040160405180910390fd5b336000818152600660205260408082208290555190919083908381818185875af1925050503d806000811461041a576040519150601f19603f3d011682016040523d82523d6000602084013e61041f565b606091505b50509050806104415760405163043f9e1160e41b815260040160405180910390fd5b505061044c60018055565b565b6002546001600160a01b031633146104b357604051630d71e2fb60e11b815260206004820152602160248201527f4f6e6c792063616c6c61626c65206279206c6f7474657279206d616e616765726044820152602160f81b6064820152608401610379565b6040516305d3b1d360e41b81527f0000000000000000000000000000000000000000000000000000000000000000600482015267ffffffffffffffff7f000000000000000000000000000000000000000000000000000000000000000016602482015261ffff7f000000000000000000000000000000000000000000000000000000000000000016604482015263ffffffff7f0000000000000000000000000000000000000000000000000000000000000000811660648301527f00000000000000000000000000000000000000000000000000000000000000001660848201526000907f00000000000000000000000000000000000000000000000000000000000000006001600160a01b031690635d3b1d309060a4016020604051808303816000875af11580156105ea573d6000803e3d6000fd5b505050506040513d601f19601f8201168201806040525081019061060e91906111fc565b600090815260036020908152604080832095909555600481528482209390935560059092525020349055565b61066e6040518060a00160405280600015158152602001600081526020016060815260200160008152602001600081525090565b6000828152600760209081526040808320815160a081018352815460ff1615158152600182015481850152600282018054845181870281018701865281815292969395948701949293919290919084015b82821015610798576000848152602090819020604080518082019091526002850290910180546001600160a01b03168252600181018054929391929184019161070790611215565b80601f016020809104026020016040519081016040528092919081815260200182805461073390611215565b80156107805780601f1061075557610100808354040283529160200191610780565b820191906000526020600020905b81548152906001019060200180831161076357829003601f168201915b505050505081525050815260200190600101906106bf565b505050508152602001600382015481526020016004820154815250509050919050565b6107c3610c65565b61044c6000610c92565b6107d5610c65565b6001600160a01b0381166107ff57604051631e4fbdf760e01b815260006004820152602401610379565b61080881610c92565b50565b60008281526003602090815260408083205460049283905281842054600254925163497422fb60e11b81529384018290529093909290916001600160a01b0316906392e845f690602401600060405180830381865afa158015610872573d6000803e3d6000fd5b505050506040513d6000823e601f3d908101601f1916820160405261089a91908101906112db565b60025460405163347d975d60e11b8152600481018690529192506000916001600160a01b03909116906368fb2eba90602401600060405180830381865afa1580156108e9573d6000803e3d6000fd5b505050506040513d6000823e601f3d908101601f1916820160405261091191908101906113f8565b9050600061093a82858860008151811061092d5761092d6114f0565b6020026020010151610ce2565b60008881526005602052604081205460c08601519293509160649061095f908461151c565b6109699190611549565b9050600086610978838561155d565b6109829190611549565b905060005b8451811015610a5b5781600660008784815181106109a7576109a76114f0565b6020026020010151600001516001600160a01b03166001600160a01b0316815260200190815260200160002060008282546109e29190611570565b925050819055508481815181106109fb576109fb6114f0565b6020026020010151600001516001600160a01b03167fe1fffcc4923d04b559f4d29a8bfc6cda04eb5b0d3c460751c2402c5c5cc9109c83604051610a4191815260200190565b60405180910390a280610a5381611583565b915050610987565b506101008601516001600160a01b031660009081526006602052604081208054849290610a89908490611570565b925050819055508561010001516001600160a01b03167fe1fffcc4923d04b559f4d29a8bfc6cda04eb5b0d3c460751c2402c5c5cc9109c83604051610ad091815260200190565b60405180910390a2877fa50861a18c1d40d588d7d049cff78152ee942a8a7ace5c12a5466784822650ff85838c600081518110610b0f57610b0f6114f0565b6020026020010151604051610b269392919061159c565b60405180910390a26000888152600760205260408120805460ff1916600190811782554290820155600381018390558a5190918b91610b6757610b676114f0565b6020026020010151816004018190555060005b8551811015610c055781600201868281518110610b9957610b996114f0565b602090810291909101810151825460018082018555600094855293839020825160029092020180546001600160a01b0319166001600160a01b03909216919091178155918101519092820190610bef9082611690565b5050508080610bfd90611583565b915050610b7a565b50505060009889525050600360209081526040808920899055600482528089208990556005909152872096909655505050505050565b600260015403610c5e57604051633ee5aeb560e01b815260040160405180910390fd5b6002600155565b6000546001600160a01b0316331461044c5760405163118cdaa760e01b8152336004820152602401610379565b600080546001600160a01b038381166001600160a01b0319831681178455604051919092169283917f8be0079c531659141344cd1fd0a4f28419497f9722a3daafe3b4186f6b6457e09190a35050565b606060008367ffffffffffffffff811115610cff57610cff610f3c565b604051908082528060200260200182016040528015610d4557816020015b604080518082019091526000815260606020820152815260200190600190039081610d1d5790505b5090506000610d55865185610dd0565b905060005b85811015610dc55786828281518110610d7557610d756114f0565b602002602001015181518110610d8d57610d8d6114f0565b6020026020010151838281518110610da757610da76114f0565b60200260200101819052508080610dbd90611583565b915050610d5a565b509095945050505050565b606060008367ffffffffffffffff811115610ded57610ded610f3c565b604051908082528060200260200182016040528015610e16578160200160208202803683370190505b50905060005b84811015610e545780828281518110610e3757610e376114f0565b602090810291909101015280610e4c81611583565b915050610e1c565b506000610e6260018661155d565b90505b8015610f32576000610e78826001611570565b60408051602081018890529081018490526060016040516020818303038152906040528051906020012060001c610eaf9190611750565b9050828181518110610ec357610ec36114f0565b6020026020010151838381518110610edd57610edd6114f0565b6020026020010151848481518110610ef757610ef76114f0565b60200260200101858481518110610f1057610f106114f0565b6020908102919091010191909152525080610f2a81611764565b915050610e65565b5090505b92915050565b634e487b7160e01b600052604160045260246000fd5b604051610160810167ffffffffffffffff81118282101715610f7657610f76610f3c565b60405290565b6040805190810167ffffffffffffffff81118282101715610f7657610f76610f3c565b604051601f8201601f1916810167ffffffffffffffff81118282101715610fc857610fc8610f3c565b604052919050565b600067ffffffffffffffff821115610fea57610fea610f3c565b5060051b60200190565b6000806040838503121561100757600080fd5b8235915060208084013567ffffffffffffffff81111561102657600080fd5b8401601f8101861361103757600080fd5b803561104a61104582610fd0565b610f9f565b81815260059190911b8201830190838101908883111561106957600080fd5b928401925b828410156110875783358252928401929084019061106e565b80955050505050509250929050565b6000602082840312156110a857600080fd5b5035919050565b600080604083850312156110c257600080fd5b50508035926020909101359150565b60005b838110156110ec5781810151838201526020016110d4565b50506000910152565b6000602080835260c0830184511515828501528185015160408181870152808701519150606060a08188015283835180865260e08901915060e08160051b8a01019550868501945060005b8181101561119f5789870360df19018352855180516001600160a01b03168852880151888801869052805186890181905261118081878b01848d016110d1565b601f01601f191697909701840196509487019491870191600101611140565b505050808801516080880152505050608085015160a0850152809250505092915050565b6001600160a01b038116811461080857600080fd5b6000602082840312156111ea57600080fd5b81356111f5816111c3565b9392505050565b60006020828403121561120e57600080fd5b5051919050565b600181811c9082168061122957607f821691505b60208210810361124957634e487b7160e01b600052602260045260246000fd5b50919050565b600082601f83011261126057600080fd5b815167ffffffffffffffff81111561127a5761127a610f3c565b61128d601f8201601f1916602001610f9f565b8181528460208386010111156112a257600080fd5b6112b38260208301602087016110d1565b949350505050565b805180151581146112cb57600080fd5b919050565b80516112cb816111c3565b6000602082840312156112ed57600080fd5b815167ffffffffffffffff8082111561130557600080fd5b90830190610160828603121561131a57600080fd5b611322610f52565b8251815260208301518281111561133857600080fd5b6113448782860161124f565b60208301525060408301518281111561135c57600080fd5b6113688782860161124f565b60408301525060608301518281111561138057600080fd5b61138c8782860161124f565b6060830152506080830151608082015260a083015160a082015260c083015160c08201526113bc60e084016112bb565b60e082015261010091506113d18284016112d0565b91810191909152610120828101519082015261014091820151918101919091529392505050565b6000602080838503121561140b57600080fd5b825167ffffffffffffffff8082111561142357600080fd5b818501915085601f83011261143757600080fd5b815161144561104582610fd0565b81815260059190911b8301840190848101908883111561146457600080fd5b8585015b838110156114e3578051858111156114805760008081fd5b86016040818c03601f19018113156114985760008081fd5b6114a0610f7c565b898301516114ad816111c3565b81529082015190878211156114c25760008081fd5b6114d08d8b8486010161124f565b818b015285525050918601918601611468565b5098975050505050505050565b634e487b7160e01b600052603260045260246000fd5b634e487b7160e01b600052601160045260246000fd5b8082028115828204841417610f3657610f36611506565b634e487b7160e01b600052601260045260246000fd5b60008261155857611558611533565b500490565b81810381811115610f3657610f36611506565b80820180821115610f3657610f36611506565b60006001820161159557611595611506565b5060010190565b6000606080830181845280875180835260808601915060808160051b87010192506020808a0160005b8381101561162757888603607f19018552815180516001600160a01b0316875283015160408488018190528151818901819052611607818b8b018589016110d1565b601f01601f191697909701880196505093820193908201906001016115c5565b505086019790975250604090930193909352509392505050565b601f82111561168b57600081815260208120601f850160051c810160208610156116685750805b601f850160051c820191505b8181101561168757828155600101611674565b5050505b505050565b815167ffffffffffffffff8111156116aa576116aa610f3c565b6116be816116b88454611215565b84611641565b602080601f8311600181146116f357600084156116db5750858301515b600019600386901b1c1916600185901b178555611687565b600085815260208120601f198616915b8281101561172257888601518255948401946001909101908401611703565b50858210156117405787850151600019600388901b60f8161c191681555b5050505050600190811b01905550565b60008261175f5761175f611533565b500690565b60008161177357611773611506565b50600019019056fea2646970667358221220596ff7fd0e92f3d4fc7beb09ac81590b0092ee4e9dbe2ccb63e56df41973fe3f64736f6c63430008140033",
  "devdoc": {
    "errors": {
      "OwnableInvalidOwner(address)": [
        {
          "details": "The owner is not a valid owner account. (eg. `address(0)`)"
        }
      ],
      "OwnableUnauthorizedAccount(address)": [
        {
          "details": "The caller account is not authorized to perform an operation."
        }
      ],
      "ReentrancyGuardReentrantCall()": [
        {
          "details": "Unauthorized reentrant call."
        }
      ]
    },
    "kind": "dev",
    "methods": {
      "owner()": {
        "details": "Returns the address of the current owner."
      },
      "renounceOwnership()": {
        "details": "Leaves the contract without owner. It will not be possible to call `onlyOwner` functions. Can only be called by the current owner. NOTE: Renouncing ownership will leave the contract without an owner, thereby disabling any functionality that is only available to the owner."
      },
      "transferOwnership(address)": {
        "details": "Transfers ownership of the contract to a new account (`newOwner`). Can only be called by the current owner."
      }
    },
    "version": 1
  },
  "userdoc": {
    "kind": "user",
    "methods": {},
    "version": 1
  },
  "storageLayout": {
    "storage": [
      {
        "astId": 162,
        "contract": "contracts/LotteryGame.sol:LotteryGame",
        "label": "_owner",
        "offset": 0,
        "slot": "0",
        "type": "t_address"
      },
      {
        "astId": 342,
        "contract": "contracts/LotteryGame.sol:LotteryGame",
        "label": "_status",
        "offset": 0,
        "slot": "1",
        "type": "t_uint256"
      },
      {
        "astId": 431,
        "contract": "contracts/LotteryGame.sol:LotteryGame",
        "label": "manager",
        "offset": 0,
        "slot": "2",
        "type": "t_contract(ILotteryManager)2102"
      },
      {
        "astId": 468,
        "contract": "contracts/LotteryGame.sol:LotteryGame",
        "label": "requestIdToLotteryId",
        "offset": 0,
        "slot": "3",
        "type": "t_mapping(t_uint256,t_uint256)"
      },
      {
        "astId": 472,
        "contract": "contracts/LotteryGame.sol:LotteryGame",
        "label": "requestIdToNumberOfWinners",
        "offset": 0,
        "slot": "4",
        "type": "t_mapping(t_uint256,t_uint256)"
      },
      {
        "astId": 476,
        "contract": "contracts/LotteryGame.sol:LotteryGame",
        "label": "requestIdToLotteryPrizePool",
        "offset": 0,
        "slot": "5",
        "type": "t_mapping(t_uint256,t_uint256)"
      },
      {
        "astId": 480,
        "contract": "contracts/LotteryGame.sol:LotteryGame",
        "label": "pendingWithdrawals",
        "offset": 0,
        "slot": "6",
        "type": "t_mapping(t_address,t_uint256)"
      },
      {
        "astId": 516,
        "contract": "contracts/LotteryGame.sol:LotteryGame",
        "label": "lotteryResults",
        "offset": 0,
        "slot": "7",
        "type": "t_mapping(t_uint256,t_struct(LotteryResult)511_storage)"
      }
    ],
    "types": {
      "t_address": {
        "encoding": "inplace",
        "label": "address",
        "numberOfBytes": "20"
      },
      "t_array(t_struct(ParticipationStruct)2019_storage)dyn_storage": {
        "base": "t_struct(ParticipationStruct)2019_storage",
        "encoding": "dynamic_array",
        "label": "struct ILotteryManager.ParticipationStruct[]",
        "numberOfBytes": "32"
      },
      "t_bool": {
        "encoding": "inplace",
        "label": "bool",
        "numberOfBytes": "1"
      },
      "t_contract(ILotteryManager)2102": {
        "encoding": "inplace",
        "label": "contract ILotteryManager",
        "numberOfBytes": "20"
      },
      "t_mapping(t_address,t_uint256)": {
        "encoding": "mapping",
        "key": "t_address",
        "label": "mapping(address => uint256)",
        "numberOfBytes": "32",
        "value": "t_uint256"
      },
      "t_mapping(t_uint256,t_struct(LotteryResult)511_storage)": {
        "encoding": "mapping",
        "key": "t_uint256",
        "label": "mapping(uint256 => struct LotteryGame.LotteryResult)",
        "numberOfBytes": "32",
        "value": "t_struct(LotteryResult)511_storage"
      },
      "t_mapping(t_uint256,t_uint256)": {
        "encoding": "mapping",
        "key": "t_uint256",
        "label": "mapping(uint256 => uint256)",
        "numberOfBytes": "32",
        "value": "t_uint256"
      },
      "t_string_storage": {
        "encoding": "bytes",
        "label": "string",
        "numberOfBytes": "32"
      },
      "t_struct(LotteryResult)511_storage": {
        "encoding": "inplace",
        "label": "struct LotteryGame.LotteryResult",
        "members": [
          {
            "astId": 500,
            "contract": "contracts/LotteryGame.sol:LotteryGame",
            "label": "completed",
            "offset": 0,
            "slot": "0",
            "type": "t_bool"
          },
          {
            "astId": 502,
            "contract": "contracts/LotteryGame.sol:LotteryGame",
            "label": "timestamp",
            "offset": 0,
            "slot": "1",
            "type": "t_uint256"
          },
          {
            "astId": 506,
            "contract": "contracts/LotteryGame.sol:LotteryGame",
            "label": "winners",
            "offset": 0,
            "slot": "2",
            "type": "t_array(t_struct(ParticipationStruct)2019_storage)dyn_storage"
          },
          {
            "astId": 508,
            "contract": "contracts/LotteryGame.sol:LotteryGame",
            "label": "prizePerWinner",
            "offset": 0,
            "slot": "3",
            "type": "t_uint256"
          },
          {
            "astId": 510,
            "contract": "contracts/LotteryGame.sol:LotteryGame",
            "label": "seed",
            "offset": 0,
            "slot": "4",
            "type": "t_uint256"
          }
        ],
        "numberOfBytes": "160"
      },
      "t_struct(ParticipationStruct)2019_storage": {
        "encoding": "inplace",
        "label": "struct ILotteryManager.ParticipationStruct",
        "members": [
          {
            "astId": 2016,
            "contract": "contracts/LotteryGame.sol:LotteryGame",
            "label": "account",
            "offset": 0,
            "slot": "0",
            "type": "t_address"
          },
          {
            "astId": 2018,
            "contract": "contracts/LotteryGame.sol:LotteryGame",
            "label": "lotteryNumber",
            "offset": 0,
            "slot": "1",
            "type": "t_string_storage"
          }
        ],
        "numberOfBytes": "64"
      },
      "t_uint256": {
        "encoding": "inplace",
        "label": "uint256",
        "numberOfBytes": "32"
      }
    }
  }
}